:020000040800F2
:2010000000200020350A0008290A00082B0A000800000000000000000000000000000000D1
:201020000000000000000000000000002D0A000800000000000000002F0A0008310A0008ED
:20104000850A0008850A0008850A0008850A0008850A0008850A0008850A0008850A0008D8
:20106000850A0008850A0008850A0008850A0008850A0008850A0008850A0008850A0008B8
:20108000850A0008850A000800000000850A0008850A0008850A0008850A0008850A00082F
:2010A000850A0008850A0008850A0008850A0008850A000800000000850A000800000000A6
:2010C00010B5064C2378002B07D1054B002B02D0044800E000BF0123237010BD1800002067
:2010E00000000000640C0008044B10B5002B03D00349044800E000BF10BDC046000000005C
:201100001C000020640C0008002243088B4274D303098B425FD3030A8B4244D3030B8B42C3
:2011200028D3030C8B420DD3FF22090212BA030C8B4202D31212090265D0030B8B4219D324
:2011400000E0090AC30B8B4201D3CB03C01A5241830B8B4201D38B03C01A5241430B8B42AD
:2011600001D34B03C01A5241030B8B4201D30B03C01A5241C30A8B4201D3CB02C01A52410E
:20118000830A8B4201D38B02C01A5241430A8B4201D34B02C01A5241030A8B4201D30B02C4
:2011A000C01A5241CDD2C3098B4201D3CB01C01A524183098B4201D38B01C01A524143090B
:2011C0008B4201D34B01C01A524103098B4201D30B01C01A5241C3088B4201D3CB00C01A7E
:2011E000524183088B4201D38B00C01A524143088B4201D34B00C01A5241411A00D2014620
:20120000524110467047FFE701B5002000F006F802BDC0460029F7D076E770477047C046FE
:20122000F0B587B016006A46CC0F6418641063000833DB08DB00D31A00AF9D466D467860DB
:2012400022000021280000F005FD00237A68A34237DB2E4A01211300FC60D0680842FCD1DD
:201260001169090605D52A4909685160294909685160B20515D1196902320A431A61402265
:201280005E6119690A431A610122D9681142FCD12022D968114200D0DA6002211A698A436E
:2012A0001A61002220203A617A6101327C69F9688C4211D38022BD4619690A431A6107B00A
:2012C000F0BD517809028C466046117802320143580029520133BAE71969114319617C6937
:2012E00039696400645B89190C80D9681142FCD1D968014200D0D86019699143196139699C
:2013000002313961796901317961CFE70020024000000020040000200B0010B5401A5C1A16
:20132000A24200DC10BD1C78C4540133F7E7000000B589B01422002103A800F08BFC80205B
:20134000094A8002516901435161536902A903400193019B90200423C0050293033B069326
:2013600000F091FB09B000BD0010024080230022DB055A625A6A8242FCD3704710B572B6CD
:20138000094B0A4A1B681360094A1278012A03D00022084B1A8010BD074A1360074A126869
:2013A00082F308889847F6E70410000858010020007C00084200002068020020001000084F
:2013C000F7B50024050023000127134A01911470547001992E1AB1420BDC002C02D0137079
:2013E0001B0A537011780D4B197052780C4B1A70F7BD08242E78310059405B08394202D0F0
:2014000008494B409BB2013CE4B27608002CF2D101353C00DDE7C046340000205E01002054
:201420005D01002001A0FFFF70B54318455C5C78FFF7C6FF054B00201B78AB4205D1044BCA
:201440001878001B43425841C0B270BD5E0100205D01002010B5FFF76BFF0022014B1A601A
:2014600010BDC0467002002090213022C9050B6893431A00102313430B607047F8B59021CA
:20148000002380201D4D1E4C2B70C9050433C0050A691A4225D01B4B90228020197804231C
:2014A000D205C00514691C4022D11A209027FFF75DFF0126FF053420FFF758FF3B692A786F
:2014C0009B083340A340013413432B70082CF2D11A20FFF74BFF0B4B2A781E700A4B1A7017
:2014E00005E0426AA242D3D96522084B1A80F8BD446AFA2CD6D90029D4D0F8E7450000200E
:20150000400D0300440000206E02002042000020F8B590250423060008240127ED05AB6243
:201520003420FFF723FF04233E420DD0AB61013CE4B27608002CF3D13420FFF717FF90235B
:201540000422DB059A61F8BDAB62F0E710B5FFF78BFF3020FFF7DCFFFFF77CFF10BD70B528
:2015600005000E000400631B9E4200DC70BD2078FFF7CEFF3420FFF7F9FE0134F3E7000042
:2015800010B5FFF771FF09210248FFF7E8FFFFF761FF10BD08000020F7B58B4D00AF2B78AE
:2015A0008A4C002B1ED08A4B20001988894B1980FFF73AFF002815D08022874E5200002113
:2015C000300000F047FB834B1A8800239A4205DCFFF7BCFF00232B70BD46F7BDE15CF154B1
:2015E0000133F3E723787D4E3360227C7D2A0AD1237A0D2BF0D1637A422BEDD1FFF7C0FF71
:2016000000232375E8E7227D7D2A05D1227B0D2A02D1627B422AF1D02200283212787D2AC6
:2016200007D1621CD27F0D2A03D1A21CD27F422AE4D0012B11D10221664B20001980FFF738
:20164000F3FE002809D0624B63481988644B1A68FFF7E6FDFFF77AFFBEE73368FF2B27D1C4
:2016600004215C4B20001980FFF7DEFE00281FD000225C4B1A80E378A2781B0213435BBA9C
:20168000594A9BB2934213D980228020120599184001534A834203D0F820C001834201D1A9
:2016A0001160D7E7514B10681B881B188B42F7D23368FE2B16D10421464B20001980FFF76B
:2016C000B3FE00280ED08023A178414A5B00012905D1138001222A70444A138012E0E178F5
:2016E0001180F7E72378FD2B0FD10221394B20001980FFF799FE002807D0FFF7B5FEC12062
:20170000FFF706FFFFF7A6FE66E73168022906D1304B20001980FFF787FE00289AD133686F
:20172000042B0BD10122324B1A70FFF79DFEC120FFF7EEFE2B4A13880133CEE7032BF4D134
:201740000222244B1A802B4A1368013313606578002D01D10135FF358022244B022120002B
:201760001A80FFF761FE0028DFD06B467B60FFF77BFE2B006A460A33DB08DB00D31A9D4602
:201780006E46EC1C22000021684600F063FA144B2A0019686846FFF7BFFD29006846FFF718
:2017A0000FFE154B68461B7821007355134B6D441B786B703023AB70FFF7D1FEFFF74AFEA4
:2017C0007B689D4608E7C046410000205F010020480000206C0200204A00002038000020B5
:2017E0004C01002042000020FF0F000062020020400000203C0000205E0100205D010020CF
:20180000F8B5812200241B4E1B4D1C4B52002100300080272C601C7000F01CFAFF05FFF7BA
:201820002DFE174B1B78002B10D0164A2B68128802329A420ED0144A013312782B603255D4
:20184000812301345B009C42E9D103E07A6AFA2A03D92B60FFF7A0FEF8BD0B4B1B783355B0
:201860000223FF339C42EBD1084A138814331380E6E7C0465F0100203C000020440000209D
:20188000410000204800002045000020420000200122234910B50B68934313430B600B68E7
:2018A000204B19680A431A60022219681142FCD0F8211A688A43110080220A431A605A680D
:2018C00019491140A02292030A430F215A60DA6A8A43DA628022196852040A431A60802298
:2018E000920419681142FCD0F0215A688A435A605A680E490A4003215A605A688A43110077
:2019000002220A430C215A605A680A40082AFBD1074800F065F9064800F072F910BDC0464C
:201920000020024000100240FFFFC2FFFFF8FFFF006CDC0270B501258021364C88B0A36943
:2019400049052B43A361A36903AE2B400193019BE2690A43E261E3692F4A0B400093009B56
:20196000102311680B431360FFF792FF0E2012220021684400F06EF9E36931002B43E361BE
:20198000E36980242B400293029B2F23E40533802000303BB36000F0D3F8802223681F49DE
:2019A00093432360A36804260B407021A36063688B436360A3689343A36023681D4325600A
:2019C0009024FFF7B5FC3022E405E368144D93431A0020231343E3602369334201D1FFF730
:2019E000CDFC0A20013DFFF7C1FC002DF4D13022E36893431A0010231343E360FFF7C0FD05
:201A0000FFF7FEFE074B1B88642BF9D9FFF7B6FCF6E7C0460010024000200240F8BFFFFF8A
:201A200010270000420000207047FEE770477047704770470D4885460D480E490E4A00234E
:201A400002E0D458C4500433C4188C42F9D30B4A0B4C002301E013600432A242FBD3FFF7B6
:201A6000E8FF00F0D3F8FFF765FFFEE7002000200000002018000020840C0008180000201D
:201A800074020020FEE7F0B500274B6885B001930E68013B02933300FB400BD1029B012B29
:201AA00005D84368CA68B34356431E434660002005B0F0BD0123BB40334033D01A0003257D
:201AC0005A435543ED43046800952C40019D55432C430460029C012C0AD88468A4466546FD
:201AE0008C6854430394009C2540039C2C438460C468A44665460C6954430394009C2C4065
:201B00002500039C2543019CC560022C0AD14C69FF2B09D80F25524355436243036AAB43AD
:201B2000134303620137B6E70F221B0A5B435B435A436343456A95431D434562F2E70000D9
:201B4000204A10B50368904206D08024E405A04202D01D4CA0420CD17024A3434C68234346
:201B6000904212D08024E405A0420ED0164CA0420BD0164CA04208D0154CA04205D0154CB0
:201B8000A04202D0144CA04203D1144C2340CC68234303608B68C3620B888362904208D081
:201BA0000B4B984205D00B4B984202D00A4B984201D10B7C03630123426913434361002047
:201BC00010BDC046002C01400004004000200040004001400044014000480140FFFCFFFF99
:201BE000FA2110B58900FFF78FFA0022034B013858609A6005321A6010BDC04610E000E04E
:201C0000014B18607047C0461400002070B500260C4D0D4C641BA410A64209D1002600F007
:201C200021F80A4D0A4C641BA410A64205D170BDB300EB5898470136EEE7B300EB5898470A
:201C40000136F2E77C0C00087C0C00087C0C0008800C000803001218934200D1704719701D
:201C60000133F9E7F8B5C046F8BC08BC9E467047F8B5C046F8BC08BC9E467047E9000008D3
:201C8000C100000823016745AB89EFCD343731641F0606013000000000127A00FFFFFFFFD7
:201CA000FFFFFFFFFFFFFFFFFFFFFFFFFFFFFFFFFFFFFFFFFFFFFFFFFFFFFFFFFFFFFFFF44
:201CC000FFFFFFFFFFFFFFFFFFFFFFFFFFFFFFFFFFFFFFFFFFFFFFFFFFFFFFFFFFFFFFFF24
:201CE000FFFFFFFFFFFFFFFFFFFFFFFFFFFFFFFFFFFFFFFFFFFFFFFFFFFFFFFFFFFFFFFF04
:201D0000FFFFFFFFFFFFFFFFFFFFFFFFFFFFFFFFFFFFFFFFFFFFFFFFFFFFFFFFFFFFFFFFE3
:201D2000FFFFFFFFFFFFFFFFFFFFFFFFFFFFFFFFFFFFFFFFFFFFFFFFFFFFFFFFFFFFFFFFC3
:201D4000FFFFFFFFFFFFFFFFFFFFFFFFFFFFFFFFFFFFFFFFFFFFFFFFFFFFFFFFFFFFFFFFA3
:201D6000FFFFFFFFFFFFFFFFFFFFFFFFFFFFFFFFFFFFFFFFFFFFFFFFFFFFFFFFFFFFFFFF83
:201D8000FFFFFFFFFFFFFFFFFFFFFFFFFFFFFFFFFFFFFFFFFFFFFFFFFFFFFFFFFFFFFFFF63
:201DA000FFFFFFFFFFFFFFFFFFFFFFFFFFFFFFFFFFFFFFFFFFFFFFFFFFFFFFFFFFFFFFFF43
:201DC000FFFFFFFFFFFFFFFFFFFFFFFFFFFFFFFFFFFFFFFFFFFFFFFFFFFFFFFFFFFFFFFF23
:201DE000FFFFFFFFFFFFFFFFFFFFFFFFFFFFFFFFFFFFFFFFFFFFFFFFFFFFFFFFFFFFFFFF03
:201E0000FFFFFFFFFFFFFFFFFFFFFFFFFFFFFFFFFFFFFFFFFFFFFFFFFFFFFFFFFFFFFFFFE2
:201E2000FFFFFFFFFFFFFFFFFFFFFFFFFFFFFFFFFFFFFFFFFFFFFFFFFFFFFFFFFFFFFFFFC2
:201E4000FFFFFFFFFFFFFFFFFFFFFFFFFFFFFFFFFFFFFFFFFFFFFFFFFFFFFFFFFFFFFFFFA2
:201E6000FFFFFFFFFFFFFFFFFFFFFFFFFFFFFFFFFFFFFFFFFFFFFFFFFFFFFFFFFFFFFFFF82
:201E8000FFFFFFFFFFFFFFFFFFFFFFFFFFFFFFFFFFFFFFFFFFFFFFFFFFFFFFFFFFFFFFFF62
:201EA000FFFFFFFFFFFFFFFFFFFFFFFFFFFFFFFFFFFFFFFFFFFFFFFFFFFFFFFFFFFFFFFF42
:201EC000FFFFFFFFFFFFFFFFFFFFFFFFFFFFFFFFFFFFFFFFFFFFFFFFFFFFFFFFFFFFFFFF22
:201EE000FFFFFFFFFFFFFFFFFFFFFFFFFFFFFFFFFFFFFFFFFFFFFFFFFFFFFFFFFFFFFFFF02
:201F0000FFFFFFFFFFFFFFFFFFFFFFFFFFFFFFFFFFFFFFFFFFFFFFFFFFFFFFFFFFFFFFFFE1
:201F2000FFFFFFFFFFFFFFFFFFFFFFFFFFFFFFFFFFFFFFFFFFFFFFFFFFFFFFFFFFFFFFFFC1
:201F4000FFFFFFFFFFFFFFFFFFFFFFFFFFFFFFFFFFFFFFFFFFFFFFFFFFFFFFFFFFFFFFFFA1
:201F6000FFFFFFFFFFFFFFFFFFFFFFFFFFFFFFFFFFFFFFFFFFFFFFFFFFFFFFFFFFFFFFFF81
:201F8000FFFFFFFFFFFFFFFFFFFFFFFFFFFFFFFFFFFFFFFFFFFFFFFFFFFFFFFFFFFFFFFF61
:201FA000FFFFFFFFFFFFFFFFFFFFFFFFFFFFFFFFFFFFFFFFFFFFFFFFFFFFFFFFFFFFFFFF41
:201FC000FFFFFFFFFFFFFFFFFFFFFFFFFFFFFFFFFFFFFFFFFFFFFFFFFFFFFFFFFFFFFFFF21
:201FE000FFFFFFFFFFFFFFFFFFFFFFFFFFFFFFFFFFFFFFFFFFFFFFFFFFFFFFFFFFFFFFFF01
:2020000000200020414C0008C54A0008C94A000800000000000000000000000000000000B9
:20202000000000000000000000000000CD4A00080000000000000000D14A0008D54A000837
:20204000914C0008914C0008914C0008914C0008914C0008914C0008914C0008914C000858
:20206000914C0008ED4B0008D94A0008194B0008514B0008154C0008914C0008914C0008CD
:20208000C94B00086D4B000800000000894B0008A54B00089D4B0008914C0008914C0008D6
:2020A000914C0008914C0008914C0008A14B0008914C000800000000914C000800000000B3
:2020C00010B5064C2378002B07D1054B002B02D0044800E000BF0123237010BDE00100208E
:2020E00000000000EC4C0008044B10B5002B03D00349044800E000BF10BDC0460000000084
:20210000E4010020EC4C0008002243088B4274D303098B425FD3030A8B4244D3030B8B4222
:2021200028D3030C8B420DD3FF22090212BA030C8B4202D31212090265D0030B8B4219D314
:2021400000E0090AC30B8B4201D3CB03C01A5241830B8B4201D38B03C01A5241430B8B429D
:2021600001D34B03C01A5241030B8B4201D30B03C01A5241C30A8B4201D3CB02C01A5241FE
:20218000830A8B4201D38B02C01A5241430A8B4201D34B02C01A5241030A8B4201D30B02B4
:2021A000C01A5241CDD2C3098B4201D3CB01C01A524183098B4201D38B01C01A52414309FB
:2021C0008B4201D34B01C01A524103098B4201D30B01C01A5241C3088B4201D3CB00C01A6E
:2021E000524183088B4201D38B00C01A524143088B4201D34B00C01A5241411A00D2014610
:20220000524110467047FFE701B5002000F0F0F802BDC0460029F7D076E7704703460B432A
:202220007FD4002243088B4274D303098B425FD3030A8B4244D3030B8B4228D3030C8B421C
:202240000DD3FF22090212BA030C8B4202D31212090265D0030B8B4219D300E0090AC30B09
:202260008B4201D3CB03C01A5241830B8B4201D38B03C01A5241430B8B4201D34B03C01A41
:202280005241030B8B4201D30B03C01A5241C30A8B4201D3CB02C01A5241830A8B4201D3AB
:2022A0008B02C01A5241430A8B4201D34B02C01A5241030A8B4201D30B02C01A5241CDD2B5
:2022C000C3098B4201D3CB01C01A524183098B4201D38B01C01A524143098B4201D34B01F9
:2022E000C01A524103098B4201D30B01C01A5241C3088B4201D3CB00C01A524183088B424F
:2023000001D38B00C01A524143088B4201D34B00C01A5241411A00D2014652411046704739
:202320005DE0CA0F00D04942031000D34042534000229C4603098B422DD3030A8B4212D395
:20234000FC22890112BA030A8B420CD3890192118B4208D3890192118B4204D389013AD016
:20236000921100E08909C3098B4201D3CB01C01A524183098B4201D38B01C01A5241430930
:202380008B4201D34B01C01A524103098B4201D30B01C01A5241C3088B4201D3CB00C01AAC
:2023A000524183088B4201D38B00C01A5241D9D243088B4201D34B00C01A5241411A00D2EA
:2023C0000146634652415B10104601D34042002B00D54942704763465B1000D3404201B502
:2023E000002000F005F802BD0029F8D016E770477047C0468368020010B50120DB0710D416
:202400008C684B68D0682343CC6809682343054C204003430020D36013699B009B080B431A
:20242000136110BDC73FFFFF8368020010B50120DB070ED44C680B68D06823438C682343A1
:20244000CC68096923430B430249014000200B43D36010BD3CC2FEFF154B30B5C21880236B
:20246000D2001B029340134D2C681C40A34215D00C684B6823438C682343CC6823430C698A
:20248000496923430B439340A84209D00A4829689040814300200B432B6030BD0120FCE7DF
:2024A000064C01689440A1430B4303600020F4E7E4FFFEBF1C0001407C3F00007E3F000088
:2024C000F0B54E464546DE4657464B68E0B59C4601230E685B4283B0634401919846002E9E
:2024E0004AD0002207E0C3681C403C43C46033000132D34040D0012393403340F7D01D00B8
:2025000004685D43A1466C0064194F46E4432740B94667466F43BA464F4651460F43019946
:2025200007600F6941466F43B9460129DBD881688B460199896869438A46594621408B4615
:2025400051465F4639438160C1680C4049460C436146C4600229CAD101994C69FF2B1DD890
:202560006D432901491B6543036A01328B431D4333000562D340BED14346012B06D8019A3D
:202580004368D268B34356431E434660002003B03CBC90469946A246AB46F0BD1B0A5B43F7
:2025A0005B435C43456A1901C91A8D432C4344629DE7C0460A4A70B50F249446094B586829
:2025C000D96AC003C01710402140604401315D68FFF79AFDAD0C2C400234604370BDC04614
:2025E00000093D00001002400E4B10B55A680C2304001340082B12D1FFF7DCFF094A206023
:20260000536809491B061B0FCB5CD84060605368064A5B055B0FD35CD840A06010BD04482E
:20262000ECE7C04600100240285300083853000800127A00030010B50020002B1DD11D4B64
:2026400003301A6B1040022818D0032821D05A680C231340012817D0082B26D1FFF7AAFF27
:20266000144B15495A685B681206120F8A5C5B05D040124A5B0FD35CD84010BD1B6A1840D2
:20268000431E9841C003F8E7082B10D1FFF792FFF3E702201B68184043425841084B4042F9
:2026A0001840084B9C466044E7E70648D8E70548E3E7C04600100240285300083853000889
:2026C00000EE85FF00127A00234A30B503688D680C8890422FD08022D205904212D01F4A4F
:2026E00090420FD01E4A904231D01E4A904226D01D4A904223D01D4A904220D00360C562DF
:20270000846212E0702293434A681343184A1340CA6813430360144BC5628462984202D0B9
:20272000124B984201D10B7C03630122436913434361002030BD702293434A6813430C4A07
:202740001340CA6813430360C5628462EBE7084A1340CA681343D1E7002C014000040040C6
:2027600000200040004001400044014000480140FFFCFFFF70B5102900D1ADE070D98023C9
:202780005B00994231D080235B01994200D0A1E0016A704E704C31400162036A4568C169DA
:2027A0002140146824020C436C49194013691B030B435168334009030B436949884208D0F7
:2027C0006849884205D06849884202D06749884204D167490D40916989010D43D26845605D
:2027E000C46102640362002075E07324016A614E31400162036A4168C569A54314682543DF
:202800005D4C1C4013691B0223435468334024022343534CA04208D0524CA04205D0524CAD
:20282000A04202D0514CA04213D1544E544C1E4053699B023343474E234094680E409169D6
:20284000A40223430901454C31432140D46966013143D2684160C561C263036200203AE01F
:20286000012937D17326036A8B430362036A44688569B543166835430226B34316693343E5
:202880008B4351680B433649884208D03549884205D03549884202D03449884213D10821B7
:2028A0008B43190053699B000B4304218B43916889000B432F490C4091690C432E490C40F9
:2028C000D16949000C43D2684460856142630362002000E0012070BD036A1F4D8B430362FE
:2028E000036A466884692C4015682D022C432025AB431D0013691B012B438B4351680D015E
:2029000017492B43884208D01649884205D01649884202D01549884214D180218B431D00B5
:20292000536940399B012B438B4391688D0114492B430E409169114D890031432940D569EE
:20294000EE000E43D26846608461826303620020C1E7C046FFEFFFFFFF8CFFFFFFDFFFFF0A
:20296000002C0140004001400044014000480140FFBFFFFFFFFEFFFFFFFDFFFFFFF7FFFFB6
:20298000FFFBFFFF8A680B7B13430D4A13404A6813430C4A13400A6813430B4A1A40CB894B
:2029A00013430A4A13400A691343094A13404A69084913430B401343436400207047C0462C
:2029C000FFFBFFFFFFF7FFFFFFEFFFFFFFDFFFFFFFBFFFFFFF7FFFFF30B5036885B0040082
:2029E0000D00DB071DD44B68C96802680B4329690B43A9690B4320490A4013430360436804
:202A00001E4A1340AA681343436083681C4A13406A69134383601B4B984205D01A4B9842EC
:202A200018D0012005B030BD0020FFF703FE0028F7D029680029F4D08022AD694B08120248
:202A400095420CD0C018FFF75FFB0004000CE0600020E7E701A8FFF7C7FD0398E7E7400051
:202A6000C018FFF751FB094B03400007400F1843E0600020D6E7C046F369FFFFFFCFFFFFAB
:202A8000FFFCFFFF0038014000440040F0FF0000FA2110B58900FFF737FB0022034B013817
:202AA00058609A6005321A6010BDC04610E000E0014B18607047C046DC010020054B064AF2
:202AC000998811801988054A11805A88044B1A807047C046F0020020D80400201C030020EE
:202AE000EC040020C220124B80001A5811491140C02212020A431A508022032192001A606B
:202B00000D4B0E4A9A600E4ADA605A68120C12040A435A601A6801390A431A601A68063140
:202B20000A431A601A6807390A431A607047C04600E100E0FF00FFFF0800024040240140DB
:202B4000F00200200023124A82B0019393681149194080231B060B4393609368002BFCDB6E
:202B600001230193019B002B05D0019B013B0193019B002BF9D1064A064993680B400121FD
:202B80000B43936013681942FCD002B07047C04600240140E8FFFF7FF0B593B010220021DE
:202BA00003A803F09BF81422002107A803F096F8102200210EA803F091F88020404B80002D
:202BC00099699024014399618021082603259A69890202400292029A5A69E4050A435A6156
:202BE0005B6920000B4001930CA9019B40270D950C96FFF765FC0D9500250CA920000C9780
:202C00001095FFF75DFC2F4B2F491A682F4C0A401A601A682E4920000A4020211A601A686D
:202C20000A431A601A686031BA431A601A680A431A601A6827491140802252000A431A60FC
:202C40001A68254911408022D2000A431A60A36A22493343A362A36A3B43A3628023A26AC6
:202C60005B021343A3620B681D4A1A4080231B0413430B60802303A91B06039304950595AC
:202C80000695FFF7B7FB012307A920000A930795089509950B95FFF7C7FB04220721E36898
:202CA0009343E36063698B4301390B4363616368934363606368B343636013B0F0BDC046B7
:202CC0000010024008000240EFBFFFFF00240140FFCFFFFFFFFCFFFFFFF3FFFF0827014022
:202CE000FFFF3FFEF0B5DE4657464E464546864A86481368D16FE0B5C91A0160844889B0DD
:202D0000844661443A295BD81000824F8030390000E0136854680832E31A5B0908C1904297
:202D2000F7D178693A6904000790B86901920590F86A7A6884460392BA68396A3B680492C2
:202D4000019A029106935340029ABD6A5340DA00039B796A6340A8464B40FD689B001343F6
:202D60002A006046FE697240424013430598049A42404046424052001343786B3A6B80001D
:202D8000D2000243F86BBF6B02437F003A43624FDBB23878D2B28146604882460078834664
:202DA0004846002813D15846002813D10F30801A834263D09A4214D0594A13680133136079
:202DC00009B03CBC90469946A246AB46F0BD58460028EFD00F2082465046821AD2B29A42F9
:202DE000EAD100224F4B1A604F4A1368013313606346012B02D162464C4B1A70069B039A78
:202E00009B025202134342461343049AED011002019A03432B439501079A2B435201134352
:202E2000059AF60014011C43029B26439B001E43490031432F2914DC4B1E2E2B17D80022AF
:202E40003B4B3C4C1A6021603B4B1B68002BB7D14B46002BB4D015291CD8384A8B00D35803
:202E60009F460022324B1960324B1A60A8E7002944D12F4B19602F4B1960A1E70120834639
:202E800050465C460470A5E72D4B1A7801239B1A2C4A13602C4B19700023236090E70022EF
:202EA000274B1A7002F08AFD2168F3E70122244B1A7002F0B1FD2168ECE7214B1A78214BB8
:202EC0001A60E7E702F0D4FD2168E3E700F0F8F9FEE701221D4B1A7002F09EFD00231C4AA3
:202EE0003B7013602168D5E70025184B1D7002F065FD174B3D701D602168CBE70D4C21685D
:202F00000029A1DC5CE7C046500300207002002045FBFFFFFC01002048020020780200205E
:202F20006C020020CC02002074020020C8020020B802002024030020C4020020044D000835
:202F40006A02002004010020B502002058020020E8020020294B70B51B68002B0DD0284BCE
:202F60001A680F231100194101290AD0013B082BF8D1002323490B6006E0234A204B1A60C4
:202F8000EFE72049083B0B601A4159020A4393B2180A190941404B400F2108009843030096
:202FA00012011343194A18131360194A194E145C08001840105CE4030443181208401B11D5
:202FC0000B40105CD35C800204435B011C43124B30001C604023243033620431012500E0F7
:202FE00004302A008A402240CA409B0953409B0103600139F4D20023F36170BDC40200207D
:20300000200300203C020020FFFF0000F80200205C4D00080C010020FC020020F0B5CE4642
:20302000474680B585B016006A46CB0F59184B1098465B0099460833DB08DB00D31A00AF80
:203040009D466D46040042460021280002F046FE4346002B0CDD4B4629002000E4184278A2
:2030600003781202134302300B800231A042F6D1434601212D4A7B60D3681942FCD11369F6
:203080001B0605D52A4B1B6853602A4B1B685360B30516D10221254B1A690A431A615E61A3
:2030A0001A693E310A431A613F39DA681142FCD12022D9680A4236D102211C4A13698B43D3
:2030C00013610023BB60FB60FB687A689A421FD901212020154A13690B431361FC68BB6844
:2030E0006400645B9B191C80D3681942FCD1D368184200D0D06013698B431361BB6802334F
:20310000BB60FB680133FB60FC687B689C42E2D38021BD46054A13690B43136105B00CBC1A
:2031200090469946F0BDDA60C6E7C04600200240C0000020C4000020002A06DD5218401A49
:203140000B78435401319142FAD17047F8B5474C302247492000FFF7EFFF637C012B00D1CC
:2031600074E00022434B1A70A37C434F012B00D000233B70E37C012B00D170E03F4D237D6E
:203180003F4E012B00D000233370637D012B63D000223C4B1A70A37D012B5AD000223A4B51
:2031A0001A70E37D032B4DD8384A1370227E183AD3B2182B34D9364B364A1380364AD362BD
:2031C000637E1A00323A642A24D8344A5B0812780A339A182A60324A13802823A57E642118
:2031E0005D43304B14351D80E27E2F4B28001A70FEF78AFF2D4B80B2186032212800FEF732
:2032000083FF2B4B80B2143018603378002B00D13B70F8BD962355222B60214B1A80DCE73D
:203220009005801A8001801840008018C0001821FEF7F4FF164B9C461E4B60441880164B44
:20324000D862BDE70222114B1A70AFE7094A13708AE70D4A1370A4E70A4A13709BE7164A8B
:20326000064D1370154B1B682B6088E780020020007C00086A02002058020020A0010020AE
:20328000E6000020CC000020C8010020CD000020CF070000D4010020002C0140BC01002051
:2032A000A4010020A6010020A80100208C01002084010020CA000020DC020020B4010020AA
:2032C00010B5164B16481B78012B00D000234374144B1B78012B00D000238374124B1B7809
:2032E000012B00D00023C374104B1B78012B00D0002303750E4B1B78012B00D00023437530
:203300000C4B1B78012B00D0002383750A4B0B4A1B783021C375FFF781FE10BD6A02002018
:203320008002002058020020DC020020E6000020CC000020C8010020CD000020007C000827
:2033400000B51B4B1B4883B01B4A9A1802CB11608342F9D101230320184A916919439161E7
:20336000926913400193019B154B196881431960FA211A68890002431A60124B1868FEF7FA
:20338000C3FE114B0138984200D9FEE7C0210F4A090650600E48036A1B021B0A0B4303628E
:2033A000002393600733136062B603B000BDC04600100008C010000800F0FF170010024074
:2033C00000000140DC010020FFFFFF0010E000E000ED00E000220121084B5A62084A9A6274
:2033E0005A690A435A615A6A8242FCD32F2201219A625A690A435A617047C046004801402B
:203400007FBB0000104A114913680B4010210B43136080220E4B5202D9680A43DA60DA68AD
:203420000C490A40DA6060220B4B01219A615D3A1A620A4A12789A623D22DA62084A117063
:203440005A690A435A61704758000240EFBFFFFF00100240FFFFFEFF0040014000050020B1
:20346000BF0200200F4A104913680B40136080220E4B5202D9680A43DA60DA680C490A4088
:20348000DA6001210A220B4B99611A620A4A12789A620A4ADA625A690A435A610022084B2E
:2034A0001A70704758000240EFBFFFFF00100240FFFFFEFF00400140DA040020FFFF0000BB
:2034C000BF02002010B5FFF7CDFF0022194B1A485A621A4B1A491A680240102A26D0194AC1
:2034E0009A60D960154B18495A680968120C12040A4302215A601A680A431A601A68063145
:203500000A431A601A6807390A431A608022094B9200D8681043D860D8680243DA601A6AC5
:203520000A431A621A680A431A6010BD054ADA609960D7E700400140104000005800024001
:203540005003002034400140DC00002010B5FFF759FF194B19481A6819490240102A27D018
:20356000184A9960DA601E21134B5A68120C12040A435A601A681C390A431A601A680631C5
:203580000A431A601A6807390A431A6080220E4B9200D8680243DA601A6A0A431A628022A0
:2035A000586C120202435A641A680A431A6010BD044AD9609A60D6E75800024010400000F2
:2035C0000C0100203440014000400140F0B5C6463F4B404800B59846186000233E4A3F4C84
:2035E00013703F4A0025137094463E4A3E4E13703E4A3F4F1370220033703B7008CA7C341B
:203600001168CB1A834201D21800012504320B00A242F5D1002D10D101232F223B70354BDD
:203620001A70354B0C3A1A60344B1F3A1A600122334B1A7004BC9046F0BD43460400010072
:203640001860031F293C6539222B12D80023294A13702C4A13702C22013333702A4B1A7060
:203660002A4B2B4A1A60244B2A4A1A602022234B1A60262C14D801231E4A33701370214A04
:203680001370254B254A5A622C221F4B1A701F4B1F4A1A60184B1F4A1A602022174B1A6019
:2036A00095235B00994207D91D4B9842B4DC0028BDD1134B1870BDE762462A3BFF3B137060
:2036C000FA220D4B92001A6004220C4B1A60EEE7B8010020204E0000C10200205003002001
:2036E000B7020020BE0200206B020020BD020020C9020020DA040020D4000020DC000020CC
:20370000B402002000050020D9000020F4000020E8FD00001027000000400140FFFF000006
:2037200070170000FC211D4A70B5506813681C4DC31A5C1989008C4218D993681B1A5A1980
:203740008A4213D9174B18681749184A0B681268C41A944207DC1C1AA24201DB086070BDFE
:203760009B1A0B60FBE79B180B60F8E7104A002093420ED9FA22D20093420DDC0D4A0E49BA
:20378000944663445801C01A8000C0180001FEF745FD044B1860D7E71300EFE75003002004
:2037A00017FCFFFF28030020B80200209401002005040000FAFBFFFFCA03000000B5374B1E
:2037C00083B01B78002B03D0354A1278002A07D1344A1278002A0AD0012A0DD003B000BD96
:2037E000314B1B78002B21D0FFF76CFEF6E7FFF7EDFEFFF767FEF1E7002B08D12B4A2C495F
:2038000013600A68002A2BDB2BD02A4A1360244B1B78002B11D0244B1B78002B1DD0FFF793
:2038200099FBFFF75FFAFFF74DFED7E7FFF78EFEFFF790FBFFF756FAD0E71F4B1B78012B7D
:2038400014D01E4B1B78012BC8D1FFF76BFF00231B4A5362154A1360C6E7FFF777FEBDE798
:203860000B60144A136801331360D0E7FFF73AFA144B1B78002B02D1FFF724FEE1E7FA2290
:20388000114B92001988114B1878114B1B880093C82301F0FFFF01F0D9FFEDE7480200203A
:2038A00078020020B4020020BF020020CC020020B0020020E80200206B020020C902002075
:2038C00000400140C80200201C0300202C0300205C0400200D4B1B68002B0DD00C4B1B68B2
:2038E0005B040DD50B4A136801331360022B02DD0022094B1A607047054B1B685B04F1D565
:20390000054A136801331360F5E7C046AC0100201C0001405002002044030020164B1B686D
:20392000012B25D0042B23D0022B1DD0052B1BD0032B0BD0062B09D0104B1B68002B0CD116
:203940000F4AD36080239B039360704741220D4B1A600A4B1B68002BF2D00022084B9A6087
:2039600080229203DA60F0E75121064A1160DFE76121044A1160D7E7C0010020AC01002059
:20398000000401401C00014070B5284D284C2968284A2688481E43009E52568813889B1900
:2039A00096889B19D6889B19168952899B199B18214A5B101360214B1B68012B26D00028C0
:2039C0001CDD0123286019401D4B196001F050FDFFF7A4FFFA2322881B019A4206D9194B2F
:2039E0001B78002B02D00122174B1A700023174A1360174A1360174A136070BD0623012210
:203A00002B60154B01211A700620DDE7481C062807DCC20F81180B4028609B1A084A1360F9
:203A2000D4E70D4A2B6013700120F7E7C0010020E40000205C02002020030020040100209C
:203A4000AC01002068020020BC02002044030020E4020020D8020020690200208023DB05BC
:203A60005B6A10B57C2B0AD82B4A2C4B12689A4205DCF4232A4AFF3312689A423ADD802343
:203A8000DB055A6A274B1A80274A136801331360642B29DC254B264A1B681268002B2AD14C
:203AA000002A0CDD23480168490423D58024E40102E0016821421DD001339342F9D11E4B7A
:203AC00080211A68002289031A60596180231B49DB055A6209681A4B5A62D96201211A61D4
:203AE000DA680A43DA6005E0134A1368002313600B4A136010BD002AE1DD0E4803685B040D
:203B0000F8D480240023E40102E001682142F1D101339342F9D1D2E77C020020570200003A
:203B20000C050020DC040020D4020020AC010020000100201C00014000040140E0020020CC
:203B40000020004030B5594B83B018680321FEF765FB574B574A18601378002B0BD0564965
:203B60000B68C31ADC171B1963404408A3423BD8002308601370514B1B78002B41D1C82382
:203B80004F4A5B0012889A421DD9C221FF204D4A890053581B021B0A53500431535883436D
:203BA000BF3803435350484A136801331360474A934206DD464D2C78002C30D1454A934260
:203BC00050DC03B030BDC22080213E4A80001358C9051B021B0A0B43C3211350FF208900D6
:203BE000535883435350DEE73B4B1C68282CBFDD06241C600024394B1C60394B01341C70E3
:203C0000B6E7384B384A1988384B1878384B1B880093C82301F03EFE01F018FEAFE701F0EF
:203C2000E3FB0022334B34491A60344B2A701A70334B1A60334B1960334B5A639A63DA6308
:203C4000324B9A625A62324B591CFF3104C39942FCD1BFF34F8F2F4B2F4ADA60BFF34F8F51
:203C6000C046FDE701F0C0FB224B234A1C60234B2C701C70224B1C60224B1A600022224B63
:203C80005C639C63DC63214B9C625C62204B591CFF3104C38B42FCD1BFF34F8F1D4B1E4A2E
:203CA000DA60BFF34F8FC046FDE7C046200300204C02002069020020E8040020C802002018
:203CC000E400002000E100E0CC020020C409000048020020983A00000C050020C402002011
:203CE000BC0200201C030020E20400002C0300205C040020B0020020204E0000B4020020DC
:203D0000E8020020B8010020002C0140004001405003002000ED00E00400FA05444A454874
:203D2000126830B50368002A21D168210133FF318B4246DC6821404A03601368FF3101336C
:203D400013608B4246DC68213C4D9B00EC583C4AE30F1C191368FF310133641013608B42D0
:203D600044DC9B00E958CA0F5118491019E0013B4CD4314C03602368013B4ED4304A236091
:203D80001368013B1360002B34DB2C4D9B00E9582368CA0F9B00EC585118E30F1C1949103E
:203DA0006410284B1A68036814199B00E858C30F1B185B1024489B18521843638463C2637C
:203DC00030BD682102601C4AFF311368013313608B42B8DD002368211360194AFF311368C4
:203DE0005A240133154D13608B42BADD00235A211360D6E76823FF33136023680F4D9B0058
:203E0000EC585821E30F1C196410CAE768230A4CFF3303602368013BB0D56823084AFF33C8
:203E200023601368013B1360002BAEDAE2E7C0460401002018030020040500206C4D000809
:203E4000F804002008010020002C01400121144A10B5D368134C8B43D360134A238812882E
:203E60009B185B102380FFF78FFD104A23881278D9084A430E495B089B1A0A600D4A13605F
:203E80000D4B1B78002B05D180230C4A9B0311680B4313600A4A13680133136010BDC0461C
:203EA00000200040E4000020DC040020CD00002044020020E0020020BC0200200004014026
:203EC0000C05002010B50C4C2368002B0AD1FFF75BFD0A4B0A4A1A8080230A4ADB055A62DF
:203EE000012323608023084A9B0311680B4313600122064B1A6010BDC4020020E4000020A9
:203F0000102700008813000000040140B001002070B58025ED056C6A254B1C8000236B622B
:203F2000244B24041A88240C500080180019801086B21E80204B1968FEF770F91F4B204A93
:203F4000186073081B1A13601E4AB6081660181A6B6A1B1B8342FBD3FFF716FD00221A4BCA
:203F60001A491A601A4B1A600B6801330B6019490978002910D0632B0DDDC82316495B006A
:203F80000968994207DD154B1A708023144A9B0311680B43136070BD1E2BFCDD0F4B104A2B
:203FA0001970802311689B030B431360F3E7C046DC040020E4000020D000002044020020C3
:203FC000E002002058040020440300200C0500205002002068020020F4040020BC020020D9
:203FE00000040140044B1A88044BDA62044A12885A639A63DA637047D4010020002C014008
:20400000100300200121334A10B513688B430B4313601368304B1A680A431A6001311A680C
:204020001142FCD0F8211A688A4378390A431A605A6B7F390A435A63274A0131536B19423E
:20404000FCD0F821536B8B4378390B435363536A7F390B435362204B01315A6A1142FCD042
:204060005A681E491140A02292030A430F215A60DA6A8A43DA628022196852040A43802184
:204080001A60154B89041A680A42FCD0F0215A68114C8A435A605A6811490A4003215A6024
:2040A0005A688A4301390A435A600C2263681340082BFBD10B48FEF7EBFC0A48FEF7F8FC7B
:2040C0000422636B93436363236B013A9343236310BDC0460020024000100240FFFFC2FFE5
:2040E000FFF8FFFF006CDC02F0B5DE464E46574645460124E0B5ADB0FFF722F98021FD4DE9
:204100004905AB6980272343AB61AB69BF0223400693069BEA6924AE0A43EA61EB690B4056
:204120000593059BFFF76EFF1022002126A801F0D5FD80206B69C0023B436B616B699022FA
:204140003B401193119B6B69D20503436B616B69310003401293129B80231B029362100078
:2041600074602493FEF7ACF9C2226B69E24923436B616B699200234010938A46109B8B583B
:20418000DE49544619408023DB030B4351468B5080215346C900196080219B58C9051B02C9
:2041A0001B0A0B43A3508022120122601EAC18220021200001F092FD26AB10220021180061
:2041C00001F08CFD6B6903213B436B616B6990203B400F930F9B02230F007160C0053100DD
:2041E0002493FEF76DF9002020218046306190202491C00531007760FEF762F9C3215046F9
:2042000089004358FF2052468343535080235B011360424650232100B948A3606260E260C4
:20422000226162611E92FEF717F91422002113A818AF01F053FD20220021300001F04EFD9A
:2042400018220021380001F049FD18220021200001F044FD8022AB6912011343AB61AB69A8
:204260001340A84A0C9391460C9B13AAA64B110048461593FEF728FA4A46136880221343CD
:204280004A46484613609368A04A0121134083609F4B4A469B468369082003439361602324
:2042A00024934346320048467360B360F36033617361B361F361FEF75DFA4B4604204A4664
:2042C0009B6910218343936193698022120113434A4693614346320048467360B360FEF740
:2042E00049FA4B4649469B698A4A082013408B615B465B68802103435846436043463200D5
:20430000490048467360B360FEF734FA5B460420594680225B68120183434B604B6848462F
:2043200013434B6080214346320049017360B360FEF720FA5B46774A5B68494613405A463A
:2043400053604B4670225B68484693434B608B68103293438B6043467B60BB6018936E4BDC
:2043600039001B883B734346FB8180239B019B463B6143467B618027FEF704FB80206B697E
:20438000BF023B436B616B69C0023B400D930D9B6B69802203436B616B69474603400E93EC
:2043A00090200E9B02232100C0051E926360A760E76027616361FEF783F841460223013738
:2043C000A160E160216155482100636063611E97FEF776F841460223A160E16021614F48B5
:2043E0002100636063611E93FEF76AF8802190204246022349001E91C00521006360A2606C
:20440000E26022616361FEF75BF88023902042469B001E93FF3BFF3B2100C0056360A26085
:20442000E26022616361FEF74BF880239020DB0042461E9302232100C0056360A260E26042
:2044400022616361FEF73CF8C321534689005B58334A50461340802212021343435059468F
:20446000016004A884468223634412220021180001F034FCEB6980203B43EB61EB69310048
:204480003B401893189B17233380264BC005B360FEF71AF980218020C9050B681B4A834358
:2044A0000B608B688027134070228B604B68BF0293434B608B685C3A83438B6030000021A7
:2044C00001F00CFCAB693B43AB61AB693B401393139BC52357469B001900FB58104F3B40FC
:2044E00080273F023B4357467B5080239B033B601AE0C0460010024000E100E0FFFF00FF02
:204500001C000140002C0140CF070000F8BFFFFF182C0140FFFBFFFFC80000200004004895
:20452000FF00FFFFFFFF0000F34FF44B31003800B360FEF7C9F880203B68122283433B60F5
:2045400004AB9C468227674438008027002101F0C5FBEB697F003B43EB61EB693B40C4276E
:20456000BF00BB460B930B9B57465B465946FB581B021B0A7B5080231B033B6017233380B1
:20458000FA23DF4F1B0131003800B360FEF79CF880203B681222034304A884463B6082233C
:2045A00063440021180001F099FB1021EB695A460B43EB61EB690B400A930A9B53469B586A
:2045C000D04A594613408022120213435246535080239B0213602F2333806423B360CA4B21
:2045E00031009B461800FEF76FF85B4680205A461B680021834313609368834304A8844640
:204600009360822363441222180001F067FB8020AB69C0020343AB61AB69310003400993D0
:20462000099B2F233380B94BB948B360FEF74CF8B74B802019001B68012283430B604B465D
:20464000484610211B6A13430362036A0B4380210362036A49000B430362036A0420494611
:2046600003430B620B6A402148460B4380210362036AC9000B438021036203680902134379
:204680000360436C0B4343644369002113434361C3681343C3601422200001F01FFB0C2219
:2046A000002127A801F01AFB8021AA6949020A43AA618022AB6992020B400793079B6B6908
:2046C000902013436B616B69042513400893089B0223012273600133B3603261310020260E
:2046E000C0052495FDF7ECFE80208A4B8A491A68FC350A401A601A6888490A401A601A6806
:204700008749B2431A601A682036B2431A601A6806008243024380201A601A6800010A409A
:204720002A431A601A687F49C5250A4002431A605346FF20AD005B5921008343504643512B
:2047400080235B0303604346238063603F33A3604346754DE36028002374FDF7B5FF012279
:20476000032411002B686A48B3432B60AB69A3431343AB61AB690B329343AB61AB69E43282
:204780009343AB612B6AE63A13432B622B6A0A000B432B622B680B432B603B680B433B602D
:2047A0007B690B437B61FB680B43FB60FB688B43FB6003680B43036043690B4380214361F8
:2047C000C9050B6813430B604B6913434B615B4659461B6813430B604B6913434B61CB68B4
:2047E0001343CB604346514924930B6813430B604F4B50491868FDF787FC03000001C01A22
:2048000080000A21FDF780FC2490249B002B05D0249B013B2493249B002BF9D101F06CF84F
:2048200001F096F8FEF7B8F9FEF75CF9FEF78AF900F05AFF404B414A1A60414A1A6002228F
:204840005A60FA2212019A600722D9680A42FCD13C4A1A613C4A1A601A60FEF733FEFEF75C
:2048600075FC3A4B1A783A4BDB78934213D8394B37491B78097999420DD235490B71002328
:20488000CA70354A3249D05CC918013348710C2BF8D1FEF715FD314B1B78012B01D100F0E6
:2048A000EFFC2F4B1A000293012313602D4B2E4A1B88002713802D4B98462D4B9B462D4BD9
:2048C00099462D4B9A46434642461B6801331360322B67DD294B2A491C882A4B188848439A
:2048E000FDF712FC031B9800C018274B00011988091BFDF793FC49E0004401402823000074
:2049000000200040FF00FFFF00100040FFFF00000048014058000240EFBFFFFFFFCFFFFF51
:20492000FFFCFFFFFFF3FFFF004001401C000140DC010020400D030000300040CCCC00005B
:2049400055550000FF0F0000AAAA0000D601002080020020D7010020E80000206A02002026
:2049600004010020CA000020D401002040020020D40000200C05002054020020B8F7FF1F69
:20498000E40C0000D8040020C2F7FF1FD44BD54A1E3018709368D4490B4004210B43936077
:2049A00043461F60D14BD24A1F60D24B1A60D24B1B6801935B46019A1B689A4204DDCF4BD7
:2049C0001B78002B00D1ECE2CD4BCE4ACE491B7812780C68012B00D1E2E1002A00D01BE1EC
:2049E000CA4A1278002A00D016E1C94BFA221C604B461B689200934200DD36E1002C00D110
:204A0000D5E2642B00DD32E1C24B1D78002D02D09F2C00DCF1E1C04B1878002800D1E5E0ED
:204A2000BE4B1A789023FF339C4200DCECE15346196864234343013353438B4204DAB84BD0
:204A40001B78002B00D01BE2B64B1C60B64B1B78002B00D011E15A2633006B432E33019377
:204A6000A34200DB21E2A54B1B78002B00D1A9E2AE4B1B680393002B08D1AD4B1B78002B9D
:204A800001D100F0F2FB0123A84A1360A94B20001F70A94B1E88A94B9C4200DCA6E2180053
:204AA000FA21C9008B1B2F385843FDF7B7FBEB065B1B9B005D1B8619A14BED0076191E60C5
:204AC000019B9C4200DCF0E14B461B681D2B00DC7FE2964A14689B4A128801929F2E00DCFF
:204AE0004DE2994B99481968FDF798FBFA210301181A800060438900FDF790FB944B1860E7
:204B0000944B1B78002B00D0F6E1934B1D68AE4202DD2E008A4B1D60784B1B78002B78D0D6
:204B2000002C76D07F4B1B6803932F2B71DD8B4B1B78002B00D06CE3894B1888FA21704383
:204B4000C900FDF76BFB874B18804B461B68952B56DDE123019A9B009A4251D89023FF339D
:204B60009E424DDD0423804A1360804A013313607F4B1F80E1239B009E420CDD4B461B6871
:204B8000642B08DD7B4B019A9A4210D80323774A1360774B1F80019B592B08D8C8239B003B
:204BA0009E4204DD0223714A1360714B1F80724B1B78002B03D0714B6C4A1B7813605C4B19
:204BC0001B78002B00D13EE1584B1B680193002B00D01CE18023DB055B6A434642461B6899
:204BE00001331360322B00DCDCE673E653461968952C00DD7BE16423484A1370642218E785
:204C00000423594A1360594A08331360584B1F80B0E7544B1F8098E7002B00D1E5E6584B06
:204C20009C4200DDB0E12300564A303B934210D8554A0298117801220068521A019082422F
:204C400000D13CE25B002F33504A12789B1A304A13602F2C00DCC7E02D4BFA221C684B465B
:204C60001B689200934200DCC8E653461F60C72C00DDC9E653461F60C6E6302C00DC0DE13F
:204C80001E4B1B78002B00D108E1313C572C00D9DFE101213E4AD3688B43D3603D4B1A68BA
:204CA0001F6000F019FDFFF739F81E4B1B68892B00DCC9E18923303BD805C01A8000C018FC
:204CC000C000C01A00015921FDF7A8FA324BF530324AFF3018605762536A9842FCD8F2E569
:204CE0002C03002000240140E8FFFF7FD4020020AAAA000000300040E8020020480200206D
:204D000058020020C1020020B80200206B020020F4040020DC02002068020020D800002037
:204D2000C8010020B0020020D1020020C4020020BC0200205A020020A4010020FF070000BA
:204D40007C020020E40000202003002040420F005C04002090010020F8000020CC000020A8
:204D6000D401002010030020D000002000010020FC00002083030000B602002088010020D7
:204D800017040000E70300006A020020A9010020002C014000040140C40100200048014098
:204DA000002A00D03BE7CC4A1278002A00D036E7CA4A944200DC0BE2C94A029912780968C4
:204DC00001918A4202D19B1A029A1360C54BE21853009B18C44A1360C44B9C46542364443D
:204DE000FF339C4200D937E7BF4B00241F6053461F60BF4B1D78002D01D053461F60BD4B2A
:204E00001878002800D1F1E653461F601CE6BA4B1A681F60FEF75EFDB84B1B680193002B7D
:204E200011D1B74AB74B12681B680192002A00D10FE2B54A126801929A4204DA0123AF4A2E
:204E40001360FFF765F88023DB055A6AAF4B9A4200D838E5AE4B1C68012C00D033E553464F
:204E600052461B6801331360FFF752F8A24B1A681F60A84B1C70A64B1F604B461F6022E53C
:204E800000F0B2FA9C4B1A681F60A34B52461F6066231360A14B1B78002B06D0A04B5F6360
:204EA0009F63DF6300F0D4FB0DE59E4A984B12781B68002A3AD19C490A60002B54D101222E
:204EC00094490A704A461360984A1268002A50DDC826954976000A60B24200DC84E0924B08
:204EE0001E608B4B1C68924B1B880193F9E50A23904A13700A229CE58F4A904B11681B6801
:204F00008F4A1568984200DA18000A00814200DD02008C48D21A0068C91A0390401B504337
:204F2000FDF77CF9884B45191D60F0E5002B0BD1012278490A704A461360844B1B78002B90
:204F400000D163E100F084FB774B814A1F60814B1F6077231360804A78331360644B1B783F
:204F6000012B01D16D4A13704B461B681D2B00DC9BE00026664A14686D4A12880192002CE4
:204F800039D1694B1E68ACE5554B029A1B7812680192934200D1FBE0704A63009446634441
:204FA00052E66F4A0133137000F036FD0CE552461460642B00DD5DE64D4B1D78002D00D050
:204FC0001BE728E5584B1E684B461B681D2B00DD7FE5564A1268B24200DD79E73200C82691
:204FE0007600B24200DD7AE7160072E52F2C00DB56E52F2054E55B4A1288B2425BDC4A4AA5
:205000001668594A1278002A00D16AE5322B00DC67E5564B019A9A4200D862E5544B101C14
:205020009A4200D9181C534BFA219C4680B2604483001B181B01181AC900FDF7EFF83A4BE9
:20504000013036181E604CE5302B00DB33E6302331E6FEF763FE304B1B680193C82B00DDB1
:20506000CCE0454B19683B4B1868444A5762536A8B42FCD3002800D025E40121274B1870B0
:20508000234B19604B4618603D4B1B680193019A3C4B1A60224BDA680A43DA605A690A439F
:2050A0005A61FEF735FFFFF70EFC204A1268002A00DD0DE75DE71C4916000A60A1E71C4818
:2050C000314A0088904278D8144A1278002A74D12E4B1A6088E6C0466B0200204C04000010
:2050E0006A020020B5FBFFFFF404002008FDFFFFDC0200206802002000040140E402002088
:20510000AC010020440300209C010020409C0000C4020020BC020020B0020020D102002039
:20512000002C0140E60000207C020020A0010020E4000020D8000020840100208C0100204F
:20514000D0010020CC010020F8000020590200200405002018030020F8040020FFF7FFFF6A
:2051600048020020A4010020D0020020581B000028230000A8E4FFFFC40100200048014058
:20518000E0000020C0010020DC050000B80200203F49404A0988914203D83F4A1278002AE5
:2051A00096D001220299D31A0B604B461F603B4B1A703B4B1A681F60EEE64A4617600122CE
:2051C00036480270029A1160354A1168176039E5344A944200DDFFE5334A0299127809681D
:2051E0009B1A01918B4201D1029B1A60BE239B001B1B5A00D3182D4A1360EDE52C4B2D4A11
:205200001F6050230020136050212EE700F0ECF89AE6019A1300C82A16DDC823264A603BA6
:205220001088264A6821944660445843FCF7F6FFFA239B009C46224B604480B21880214BFB
:20524000214ADB7D137079E4019A602AE6DA6023E4E71E4A126801929A4200DBF3E5012350
:205260001B4A1360FEF754FEEDE5FEF72BFE194B1C68194B1D786E432E360196FFF703FC9D
:20528000164B1A00029300231360FFF70FFBC046E4000020DC050000D1020020BC020020AC
:2052A00000040140F70200006A020020F404002018030020C4010020CA00002018FCFFFFF0
:2052C000D401002080020020CD00002098010020E4020020B0020020DC0200200401002096
:2052E000104B114A1B78002B0AD0104B1B78002B06D1032113688B4301390B43136006E022
:20530000032113688B4302390B43136091629021C9050B68064A1A4080231B0313430B6013
:205320007047C046E600002000040048C0020020FFFFF3FF134B1B78002B0DD0124B1B78A3
:20534000002B09D19021C9050B68104A1A4080231B0213430B600AE09023DB051A680B49CE
:2053600011408022D2010A431A6080229A629021C9050B68064A1A4080239B0213430B6065
:205380007047C046E6000020C0020020FF3FFFFFFFFFFCFF104B114A1B78002B0AD0104B8A
:2053A0001B78002B06D10C2113688B4304390B43136007E00C2113688B4308390B43136085
:2053C000022393629021C9050B68064A1A4080239B0313430B607047E6000020000400480C
:2053E000C0020020FFFFCFFF0C211C4A1C4813688B4308390B431360022393629023DB0510
:2054000019680840802149030143196080210320C900996211688143023801431160906273
:205420001A68104911408022D2020A431A60802292009A621A680C4911408022D2010A43E9
:205440001A6080229A621A6808491140802252020A431A60802252009A6270470004004860
:20546000FFFFCFFFFFFFF3FFFF3FFFFFFFFFFCFF10B506282CD8704B80001B589F46FFF7BB
:2054800089FF03216D4A13688B4302390B43136090239162DB051A68694911408022D202E3
:2054A0000A431A60802292009A621A68654911408022D2010A431A6080229A611A6862496E
:2054C0001140802252020A431A60802252009A6210BDFFF75FFF0321584A13688B43023963
:2054E0000B43136090239161DB051A68544911408022D2020A431A60802292009A621A6807
:20550000504911408022D2010A431A6080229A62D4E70C21494A4D4813688B4308390B43DF
:205520001360022393629023DB0519680840802149030143196080210320C90099621168D7
:20554000814302380143116090611A683C4911408022D2020A431A60802292009A62FFF7EC
:20556000E9FEB5E70C21354A384813688B4308390B431360022393619023DB0519680840BC
:20558000802149030143196080210320C9009962116881430238014311609062D5E70C21D2
:2055A000264A90241368E4058B4308390B431360022393612368254A1A4080235B031343CF
:2055C00023608023DB00A362FFF78AFE23681D4A1A408023DB01134323608023A362236870
:2055E000194A1A4080235B021343236080235B00A3626DE70C21114A90241368E4058B4350
:2056000008390B4313600223936223680F4A1A4080235B03134323608023DB00A362FFF7DD
:205620005FFE2368074A1A408023DB01134323608023A361D3E7C0460C5300080004004865
:20564000FFFFF3FFFF3FFFFFFFFFFCFFFFFFCFFF0C211C4A1C4813688B4308390B43136017
:20566000022393619023DB0519680840802149030143196080210320C90099621168814346
:2056800002380143116090611A68104911408022D2020A431A60802292009A621A680C49BA
:2056A00011408022D2010A431A6080229A611A6808491140802252020A431A6080225200EB
:2056C0009A62704700040048FFFFCFFFFFFFF3FFFF3FFFFFFFFFFCFF10B5FFF75BFEFFF7D0
:2056E000FFFDFFF727FE10BD70B590B01C22002109A800F0F3FA0C22002106A800F0EEFA9F
:205700008020434BC001996940250143996180219A69C90202400292029A5A6901260A43DD
:205720005A615B693B4C0B400193019B022303A9049339480133039505930796FCF7C0FE4D
:205740002368364AC62013401022134323602368334AC02113402022236023688000934318
:20576000236023686032AB432360236809061343236023682B4A2C4D1340236023682B4A56
:2057800013402B4A236013581B021B0A0B43135080231B051360E1235B02082209930023E0
:2057A00009A928000A930B930C930D920E930F93FDF712F9AB681F4A1F481340AB606B6840
:2057C0001E4A1F4913402A226B60AB689343AB602B681C4A1E432E6023680340102B13D0C7
:2057E000A160E2600B4B18495A680978120C12040A4302215A601A680A431A601A6806310C
:205800000A431A6010B070BDE160A260EAE7C046001002401C00024000040048EFBFFFFF12
:20582000FFCFFFFFFFFCFFFF00380140FFF3FFFF00E100E0FFFBFFFF10400000FFB7FFFF7D
:205840001005002028380140D80100200C2008210D4B10B51A680D4C82430A430C491A604B
:205860004A682478120C1204224380244A609A6822439A600A687F3C22430A6004211A68EF
:2058800082430A431A6010BD00380140D80100201C000240F0B505AC164E24880D0AB17041
:2058A0003271110AB3711A0A3700230A7570F3710725002334723070F1707271741C09378C
:2058C0004340082204E0013AD2B2DBB2002A09D059B25B000029F6DA013A6B40D2B2DBB292
:2058E000002AF5D1BC4202D020780134E8E77372F0BDC0461005002010B572B60A23124C07
:2059000002206363A363E363FFF7B2FD3723C820A362FDF75FFD0420FFF7AAFD2823C82023
:20592000A362FDF757FD0120FFF7A2FD1923C820A362FDF74FFDFFF757FD0023034AA3623C
:20594000136062B610BDC046002C0140CC020020052370B5184C02206363A363E363FFF7B3
:2059600087FD3C2337253226A362C820FDF732FDA5629620FDF72EFDA6629620FDF72AFDCB
:205980002D236420A362FDF725FDA6626420FDF721FDA5626420FDF71DFD1923C820A362B8
:2059A000FDF718FDA5629620FDF714FDFFF71CFD0023A36270BDC046002C014070B572B6F8
:2059C0003C23114C114D124E02202E60A362373B6363A363E363FFF74BFD4B20FDF7FAFC81
:2059E00050234B20A362FDF7F5FC5A234B20A3622E60FDF7EFFCFFF7F7FC0023054AA36225
:205A0000136062B670BDC046002C014000300040AAAA0000CC02002010B572B6104A114B06
:205A2000114C1A605023A3624B3B63630220A363E363FFF71DFD6420FDF7CCFC4623642020
:205A4000A362FDF7C7FC28236420A362FDF7C2FCFFF7CAFC0023054AA362136062B610BD79
:205A6000AAAA000000300040002C0140CC020020F8B572B6082377240E4D0F4F0F4E6B6388
:205A8000AB63EB63142120003E60FCF7C7FBFFF7EFFC63100A33AB620A20023CFDF79AFC72
:205AA000631CEFD1FFF7A0FC0023054AAB62136062B6F8BD002C014000300040AAAA000025
:205AC000CC0200207047C046FEE7C0467047C0467047C0467047C0460B4B1A6892060AD4AB
:205AE0001A68120606D5102201215A60074A13688B431360704706490A6801320A600021E0
:205B0000044A1170EFE7C046000002401C000240EC020020C80200200B4B10B51A681A6823
:205B2000920306D41A68120302D5802252025A6010BD8022012152025A60044A13688B43A2
:205B40001360FDF73BFEF3E700000240580002408022054B9203596910B5114202D05A6101
:205B6000FDF77CFF10BDC04600040140054B10B51A69D20704D5022252421A61FDF7E2FF4C
:205B800010BDC04600100040022210B5024B52421A61FEF75BF910BD002000407047C0466A
:205BA0007047C046074B1A69920702D5032252421A61044B1A69D20702D5022252421A61FA
:205BC0007047C04600400140074B1A69920702D5032252421A61044B1A69D20702D5022268
:205BE00052421A617047C04600040040084B10B51A68920706D40822054B19680A4200D071
:205C00005A6010BD01225A60FCF758FFF3E7C04600000240084B10B51A69920702D5032284
:205C200052421A61044B1A69D20704D5022252421A61FEF7D7F910BD002C01407047C046E2
:205C40000D4885460D480E490E4A002302E0D458C4500433C4188C42F9D30B4A0B4C00235F
:205C600001E013600432A242FBD3FFF7E7FF00F011F8FEF739FAFEE700200020C0000020E6
:205C8000E001002048530008E00100201C050020FEE7000070B500260C4D0D4C641BA41009
:205CA000A64209D1002600F021F80A4D0A4C641BA410A64205D170BDB300EB58984701361C
:205CC000EEE7B300EB5898470136F2E740530008405300084053000844530008030012186D
:205CE000934200D1704719700133F9E7F8B5C046F8BC08BC9E467047F8B5C046F8BC08BCB9
:205D00009E467047941E0008B21E0008A41E0008C41E0008941E0008941E0008941E000874
:205D20009E1E0008AC1E0008E81E0008D21E0008941E0008CC1E0008941E0008941E0008A7
:205D4000941E0008941E0008941E0008941E0008941E0008881E0008BA1E0008191B1213BA
:205D60001D1516171A090A0B1E0D0E0FB4000000B7000000BA000000BD000000C1000000A1
:205D8000C4000000C7000000CA000000CD000000D0000000D3000000D6000000D90000008F
:205DA000DC000000E0000000E3000000E6000000E9000000EC000000EF000000F2000000A8
:205DC000F5000000F7000000FA000000FD00000000010000030100000601000009010000CA
:205DE0000B0100000E010000110100001301000016010000190100001B0100001E010000F6
:205E0000200100002301000025010000280100002A0100002C0100002F0100003101000034
:205E20003301000035010000380100003A0100003C0100003E010000400100004201000084
:205E4000440100004601000047010000490100004B0100004D0100004E01000050010000EA
:205E60005101000053010000540100005601000057010000580100005A0100005B01000068
:205E80005C0100005D0100005E0100005F01000060010000610100006201000063010000FE
:205EA0006301000064010000650100006501000066010000660100006701000067010000AF
:205EC00067010000680100006801000068010000680100006801000068010000680100007B
:205EE000680100006801000067010000670100006701000066010000660100006501000064
:205F0000650100006401000063010000630100006201000061010000600100005F01000068
:205F20005E0100005D0100005C0100005B0100005A01000058010000570100005601000088
:205F4000540100005301000051010000500100004E0100004D0100004B01000049010000C2
:205F600047010000460100004401000042010000400100003E0100003C0100003A01000012
:205F8000380100003501000033010000310100002F0100002C0100002A010000280100007B
:205FA0002501000023010000200100001E0100001B010000190100001601000013010000F6
:205FC000110100000E0100000B01000009010000060100000301000000010000FD00000081
:205FE000FA000000F7000000F5000000F2000000EF000000EC000000E9000000E60000001F
:20600000E3000000E0000000DC000000D9000000D6000000D3000000D0000000CD000000C2
:20602000CA000000C7000000C4000000C1000000BD000000BA000000B7000000B400000068
:20604000B1000000AE000000AB000000A7000000A4000000A10000009E0000009B00000011
:206060009800000095000000920000008F0000008C000000880000008500000082000000B7
:206080007F0000007C000000790000007600000073000000710000006E0000006B00000059
:2060A0006800000065000000620000005F0000005D0000005A0000005700000055000000EF
:2060C000520000004F0000004D0000004A0000004800000045000000430000004000000078
:2060E0003E0000003C00000039000000370000003500000033000000300000002E000000F0
:206100002C0000002A00000028000000260000002400000022000000210000001F00000055
:206120001D0000001B0000001A0000001800000017000000150000001400000012000000A3
:2061400011000000100000000E0000000D0000000C0000000B0000000A00000009000000D9
:206160000800000007000000060000000500000005000000040000000300000003000000F6
:206180000200000002000000010000000100000001000000000000000000000000000000F8
:2061A0000000000000000000000000000000000000000000000000000100000001000000DD
:2061C0000100000002000000020000000300000003000000040000000500000005000000A6
:2061E000060000000700000008000000090000000A0000000B0000000C0000000D00000053
:206200000E00000010000000110000001200000014000000150000001700000018000000E5
:206220001A0000001B0000001D0000001F0000002100000022000000240000002600000060
:20624000280000002A0000002C0000002E00000030000000330000003500000037000000C3
:20626000390000003C0000003E000000400000004300000045000000480000004A00000011
:206280004D0000004F0000005200000055000000570000005A0000005D0000005F0000004E
:2062A0006200000065000000680000006B0000006E0000007100000073000000760000007C
:2062C000790000007C0000007F0000008200000085000000880000008C0000008F000000A0
:2062E0009200000095000000980000009B0000009E000000A1000000A4000000A7000000BA
:20630000AB000000AE000000B1000000D0440008D244000812450008644500089E4500083E
:20632000F44500087E44000800000000000000000102030406070809000000000102030420
:20634000E9100008C110000823016745AB89EFCD2D00CF070102000003000000E8030000AF
:206360000A2C00002000000005000000D43001004644363238385F504132202024F40000E1
:20638000CF0700000A00000005000000010000003C000000000000000000000000000000DB
:2063A0000000000000000000000000000000000000000000000000000000000000000000DD
:2063C00040000000000000000000000000000000000000004000000000000000000000003D
:2063E0000000000000000000400000000000000000000000000000004000000040000000DD
:20640000000000004000000000000000460000001400000014000000010000009600000037
:206420000700000007000000B40000004000D0070E010000010000000100000078000000FA
:20644000204E000019000000010000006400000001000000CF070000F4010000CF07013A73
:206460000A00000000127A00FFFFFFFFFFFFFFFFFFFFFFFFFFFFFFFFFFFFFFFFFFFFFFFF9E
:20648000FFFFFFFFFFFFFFFFFFFFFFFFFFFFFFFFFFFFFFFFFFFFFFFFFFFFFFFFFFFFFFFF1C
:2064A000FFFFFFFFFFFFFFFFFFFFFFFFFFFFFFFFFFFFFFFFFFFFFFFFFFFFFFFFFFFFFFFFFC
:2064C000FFFFFFFFFFFFFFFFFFFFFFFFFFFFFFFFFFFFFFFFFFFFFFFFFFFFFFFFFFFFFFFFDC
:2064E000FFFFFFFFFFFFFFFFFFFFFFFFFFFFFFFFFFFFFFFFFFFFFFFFFFFFFFFFFFFFFFFFBC
:20650000FFFFFFFFFFFFFFFFFFFFFFFFFFFFFFFFFFFFFFFFFFFFFFFFFFFFFFFFFFFFFFFF9B
:20652000FFFFFFFFFFFFFFFFFFFFFFFFFFFFFFFFFFFFFFFFFFFFFFFFFFFFFFFFFFFFFFFF7B
:20654000FFFFFFFFFFFFFFFFFFFFFFFFFFFFFFFFFFFFFFFFFFFFFFFFFFFFFFFFFFFFFFFF5B
:20656000FFFFFFFFFFFFFFFFFFFFFFFFFFFFFFFFFFFFFFFFFFFFFFFFFFFFFFFFFFFFFFFF3B
:20658000FFFFFFFFFFFFFFFFFFFFFFFFFFFFFFFFFFFFFFFFFFFFFFFFFFFFFFFFFFFFFFFF1B
:2065A000FFFFFFFFFFFFFFFFFFFFFFFFFFFFFFFFFFFFFFFFFFFFFFFFFFFFFFFFFFFFFFFFFB
:2065C000FFFFFFFFFFFFFFFFFFFFFFFFFFFFFFFFFFFFFFFFFFFFFFFFFFFFFFFFFFFFFFFFDB
:2065E000FFFFFFFFFFFFFFFFFFFFFFFFFFFFFFFFFFFFFFFFFFFFFFFFFFFFFFFFFFFFFFFFBB
:20660000FFFFFFFFFFFFFFFFFFFFFFFFFFFFFFFFFFFFFFFFFFFFFFFFFFFFFFFFFFFFFFFF9A
:20662000FFFFFFFFFFFFFFFFFFFFFFFFFFFFFFFFFFFFFFFFFFFFFFFFFFFFFFFFFFFFFFFF7A
:20664000FFFFFFFFFFFFFFFFFFFFFFFFFFFFFFFFFFFFFFFFFFFFFFFFFFFFFFFFFFFFFFFF5A
:20666000FFFFFFFFFFFFFFFFFFFFFFFFFFFFFFFFFFFFFFFFFFFFFFFFFFFFFFFFFFFFFFFF3A
:20668000FFFFFFFFFFFFFFFFFFFFFFFFFFFFFFFFFFFFFFFFFFFFFFFFFFFFFFFFFFFFFFFF1A
:2066A000FFFFFFFFFFFFFFFFFFFFFFFFFFFFFFFFFFFFFFFFFFFFFFFFFFFFFFFFFFFFFFFFFA
:2066C000FFFFFFFFFFFFFFFFFFFFFFFFFFFFFFFFFFFFFFFFFFFFFFFFFFFFFFFFFFFFFFFFDA
:2066E000FFFFFFFFFFFFFFFFFFFFFFFFFFFFFFFFFFFFFFFFFFFFFFFFFFFFFFFFFFFFFFFFBA
:20670000FFFFFFFFFFFFFFFFFFFFFFFFFFFFFFFFFFFFFFFFFFFFFFFFFFFFFFFFFFFFFFFF99
:20672000FFFFFFFFFFFFFFFFFFFFFFFFFFFFFFFFFFFFFFFFFFFFFFFFFFFFFFFFFFFFFFFF79
:20674000FFFFFFFFFFFFFFFFFFFFFFFFFFFFFFFFFFFFFFFFFFFFFFFFFFFFFFFFFFFFFFFF59
:20676000FFFFFFFFFFFFFFFFFFFFFFFFFFFFFFFFFFFFFFFFFFFFFFFFFFFFFFFFFFFFFFFF39
:20678000FFFFFFFFFFFFFFFFFFFFFFFFFFFFFFFFFFFFFFFFFFFFFFFFFFFFFFFFFFFFFFFF19
:2067A000FFFFFFFFFFFFFFFFFFFFFFFFFFFFFFFFFFFFFFFFFFFFFFFFFFFFFFFFFFFFFFFFF9
:2067C000FFFFFFFFFFFFFFFFFFFFFFFFFFFFFFFFFFFFFFFFFFFFFFFFFFFFFFFFFFFFFFFFD9
:2067E000FFFFFFFFFFFFFFFFFFFFFFFFFFFFFFFFFFFFFFFFFFFFFFFFFFFFFFFFFFFFFFFFB9
:206800000C206C62FBF7C8F90C20FBF7F9F9CAE76B210648FFF79CFFEFE7C046002401405E
:206820000010024054040020080002408C5B000800B50D4B026887B09A4201D007B000BD86
:206840002223902001931F3B0293002301A9C0050393FBF775FC002200210C20FBF79CF93F
:206860000C20FBF7CDF9E9E71C00014070B503683E4A8AB0040093420ED08022D2059342B0
:2068800015D03B4A93421CD03A4A934236D03A4A934220D00AB070BD8020384A0001916921
:2068A00001439161936903400193019BF2E70123324AD1691943D161D26913400293029B32
:2068C000E8E702232D4AD1691943D161D26913400393039BDEE78020284A8002916901432C
:2068E0009161936901210340059300221520059BFBF752F91520FBF783F9CBE780201F4A1B
:2069000040029169002601439161936905A903400493049B90200423C0050593023B0693B2
:20692000079608960996FBF70BFC154D154B28002B608023EB6080332B6180231B016B6157
:2069400080235B016E60AE60AE61EB61FBF792F9002804D01E210C48FF31FFF7F9FE656211
:206960002562A5636C62656394E7C046002C01400004004000400140004401400010024068
:2069800088030020580002408C5B000830B5104B026887B09A4201D007B030BDF8239020C6
:2069A000022400251B0101A9C00501930294039504950594FBF7C4FB032301A905480193AB
:2069C0000294039504950594FBF7BAFBE4E7C046002C0140000400487047C046FEE7C0467E
:2069E0007047C0467047C04610B5FAF725FDFBF73DF910BD10B50248FBF7B0F910BDC046D3
:206A00005404002010B50448FBF7A8F9FEF7E2FF0022024B5A6210BD88030020004401405C
:206A200010B50348FAF7C0FE0248FBF79FF810BD980400201002002010B50248FCF7EAFD20
:206A400010BDC046E40400200121114B11481A680A431A605A6802405A601A680E48024063
:206A60001A601A680D4802401A605A680C4802400F205A60DA6A8243DA621A6B094802406B
:206A80001A635A6B8A435A6300229A607047C046001002400CB8FFF8FFFFF6FEFFFFFBFF5A
:206AA000FFFFC0FFACFEFFFF0D4885460D480E490E4A002302E0D458C4500433C4188C4227
:206AC000F9D30B4A0B4C002301E013600432A242FBD3FFF7B9FF00F011F8FFF787F8FEE7DE
:206AE000002000200000002064000020C05B00086800002024050020FEE7000070B500268E
:206B00000C4D0D4C641BA410A64209D1002600F021F80A4D0A4C641BA410A64205D170BDD4
:206B2000B300EB5898470136EEE7B300EB5898470136F2E7B85B0008B85B0008B85B00083E
:206B4000BC5B000803008218934200D1704719700133F9E7F8B5C046F8BC08BC9E467047B9
:206B6000F8B5C046F8BC08BC9E46704702030405060708090A0B0C0D0E0F101001020304AE
:206B800005060708090A0B0C0D0E0F102E2E5C5372635C73746D3332663078785F68616C68
:206BA0005F6D73702E63000000000000000000000102030406070809E9000008C1000008B3
:206BC00040000000555566667777080001000000640000000200000001000000020000009F
:206BE0000100000040000000030000005A0000002C01000001000000010000001027000091
:206C000001000000204E00009600000001000000010000000100000001000000D007000094
:206C200000127A00FFFFFFFFFFFFFFFFFFFFFFFFFFFFFFFFFFFFFFFFFFFFFFFFFFFFFFFFE4
:206C4000FFFFFFFFFFFFFFFFFFFFFFFFFFFFFFFFFFFFFFFFFFFFFFFFFFFFFFFFFFFFFFFF54
:206C6000FFFFFFFFFFFFFFFFFFFFFFFFFFFFFFFFFFFFFFFFFFFFFFFFFFFFFFFFFFFFFFFF34
:206C8000FFFFFFFFFFFFFFFFFFFFFFFFFFFFFFFFFFFFFFFFFFFFFFFFFFFFFFFFFFFFFFFF14
:206CA000FFFFFFFFFFFFFFFFFFFFFFFFFFFFFFFFFFFFFFFFFFFFFFFFFFFFFFFFFFFFFFFFF4
:208000000000FFFF010055550000666600007777010055550100666600007777FFFFFFFF9B
:20802000FFFFFFFFFFFFFFFFFFFFFFFFFFFFFFFFFFFFFFFFFFFFFFFFFFFFFFFFFFFFFFFF60
:20804000FFFFFFFFFFFFFFFFFFFFFFFFFFFFFFFFFFFFFFFFFFFFFFFFFFFFFFFFFFFFFFFF40
:20806000FFFFFFFFFFFFFFFFFFFFFFFFFFFFFFFFFFFFFFFFFFFFFFFFFFFFFFFFFFFFFFFF20
:20808000FFFFFFFFFFFFFFFFFFFFFFFFFFFFFFFFFFFFFFFFFFFFFFFFFFFFFFFFFFFFFFFF00
:208C0000010001013A4644363238385F5041322020000000010101021864370E6630353191
:208C200023202020234E454F4553432366303531FFFFFFFFFFFFFFFFFFFFFFFFFFFFFFFFC2
:208C4000FFFFFFFFFFFFFFFFFFFFFFFFFFFFFFFFFFFFFFFFFFFFFFFFFFFFFFFFFFFFFFFF34
:208C6000FFFFFFFFFFFFFFFFFFFFFFFFFFFFFFFFFFFFFFFFFFFFFFFFFFFFFFFFFFFFFFFF14
:208C8000FFFFFFFFFFFFFFFFFFFFFFFFFFFFFFFFFFFFFFFFFFFFFFFFFFFFFFFFFFFFFFFFF4
:208CA000FFFFFFFFFFFFFFFFFFFFFFFFFFFFFFFFFFFFFFFFFFFFFFFFFFFFFFFFFFFFFFFFD4
:208CC000FFFFFFFFFFFFFFFFFFFFFFFFFFFFFFFFFFFFFFFFFFFFFFFFFFFFFFFFFFFFFFFFB4
:208CE000FFFFFFFFFFFFFFFFFFFFFFFFFFFFFFFFFFFFFFFFFFFFFFFFFFFFFFFFFFFFFFFF94
:208D0000FFFFFFFFFFFFFFFFFFFFFFFFFFFFFFFFFFFFFFFFFFFFFFFFFFFFFFFFFFFFFFFF73
:208D2000FFFFFFFFFFFFFFFFFFFFFFFFFFFFFFFFFFFFFFFFFFFFFFFFFFFFFFFFFFFFFFFF53
:208D4000FFFFFFFFFFFFFFFFFFFFFFFFFFFFFFFFFFFFFFFFFFFFFFFFFFFFFFFFFFFFFFFF33
:208D6000FFFFFFFFFFFFFFFFFFFFFFFFFFFFFFFFFFFFFFFFFFFFFFFFFFFFFFFFFFFFFFFF13
:208D8000FFFFFFFFFFFFFFFFFFFFFFFFFFFFFFFFFFFFFFFFFFFFFFFFFFFFFFFFFFFFFFFFF3
:208DA000FFFFFFFFFFFFFFFFFFFFFFFFFFFFFFFFFFFFFFFFFFFFFFFFFFFFFFFFFFFFFFFFD3
:208DC000FFFFFFFFFFFFFFFFFFFFFFFFFFFFFFFFFFFFFFFFFFFFFFFFFFFFFFFFFFFFFFFFB3
:208DE000FFFFFFFFFFFFFFFFFFFFFFFFFFFFFFFFFFFFFFFFFFFFFFFFFFFFFFFFFFFFFFFF93
:208E0000FFFFFFFFFFFFFFFFFFFFFFFFFFFFFFFFFFFFFFFFFFFFFFFFFFFFFFFFFFFFFFFF72
:208E2000FFFFFFFFFFFFFFFFFFFFFFFFFFFFFFFFFFFFFFFFFFFFFFFFFFFFFFFFFFFFFFFF52
:208E4000FFFFFFFFFFFFFFFFFFFFFFFFFFFFFFFFFFFFFFFFFFFFFFFFFFFFFFFFFFFFFFFF32
:208E6000FFFFFFFFFFFFFFFFFFFFFFFFFFFFFFFFFFFFFFFFFFFFFFFFFFFFFFFFFFFFFFFF12
:208E8000FFFFFFFFFFFFFFFFFFFFFFFFFFFFFFFFFFFFFFFFFFFFFFFFFFFFFFFFFFFFFFFFF2
:208EA000FFFFFFFFFFFFFFFFFFFFFFFFFFFFFFFFFFFFFFFFFFFFFFFFFFFFFFFFFFFFFFFFD2
:208EC000FFFFFFFFFFFFFFFFFFFFFFFFFFFFFFFFFFFFFFFFFFFFFFFFFFFFFFFFFFFFFFFFB2
:208EE000FFFFFFFFFFFFFFFFFFFFFFFFFFFFFFFFFFFFFFFFFFFFFFFFFFFFFFFFFFFFFFFF92
:208F0000FFFFFFFFFFFFFFFFFFFFFFFFFFFFFFFFFFFFFFFFFFFFFFFFFFFFFFFFFFFFFFFF71
:208F2000FFFFFFFFFFFFFFFFFFFFFFFFFFFFFFFFFFFFFFFFFFFFFFFFFFFFFFFFFFFFFFFF51
:208F4000FFFFFFFFFFFFFFFFFFFFFFFFFFFFFFFFFFFFFFFFFFFFFFFFFFFFFFFFFFFFFFFF31
:208F6000FFFFFFFFFFFFFFFFFFFFFFFFFFFFFFFFFFFFFFFFFFFFFFFFFFFFFFFFFFFFFFFF11
:208F8000FFFFFFFFFFFFFFFFFFFFFFFFFFFFFFFFFFFFFFFFFFFFFFFFFFFFFFFFFFFFFFFFF1
:208FA000FFFFFFFFFFFFFFFFFFFFFFFFFFFFFFFFFFFFFFFFFFFFFFFFFFFFFFFFFFFFFFFFD1
:208FC000FFFFFFFFFFFFFFFFFFFFFFFFFFFFFFFFFFFFFFFFFFFFFFFFFFFFFFFFFFFFFFFFB1
:208FE000FFFFFFFFFFFFFFFFFFFFFFFFFFFFFFFFFFFFFFFFFFFFFFFFFFFFFFFFFFFFFFFF91
:00000001FF
